{
  "_format": "hh-sol-artifact-1",
  "contractName": "WavePortal",
  "sourceName": "contracts/WavePortal.sol",
  "abi": [
    {
      "inputs": [],
      "stateMutability": "payable",
      "type": "constructor"
    },
    {
      "anonymous": false,
      "inputs": [
        {
          "indexed": true,
          "internalType": "address",
          "name": "from",
          "type": "address"
        },
        {
          "indexed": false,
          "internalType": "string",
          "name": "message",
          "type": "string"
        },
        {
          "indexed": false,
          "internalType": "uint256",
          "name": "timestamp",
          "type": "uint256"
        }
      ],
      "name": "NewWave",
      "type": "event"
    },
    {
      "inputs": [],
      "name": "getAllWaves",
      "outputs": [
        {
          "components": [
            {
              "internalType": "address",
              "name": "waver",
              "type": "address"
            },
            {
              "internalType": "string",
              "name": "message",
              "type": "string"
            },
            {
              "internalType": "uint256",
              "name": "timestamp",
              "type": "uint256"
            }
          ],
          "internalType": "struct WavePortal.Wave[]",
          "name": "",
          "type": "tuple[]"
        }
      ],
      "stateMutability": "view",
      "type": "function"
    },
    {
      "inputs": [],
      "name": "getRandomNumber",
      "outputs": [
        {
          "internalType": "bytes32",
          "name": "requestId",
          "type": "bytes32"
        }
      ],
      "stateMutability": "nonpayable",
      "type": "function"
    },
    {
      "inputs": [],
      "name": "getTotalWaves",
      "outputs": [
        {
          "internalType": "uint256",
          "name": "",
          "type": "uint256"
        }
      ],
      "stateMutability": "view",
      "type": "function"
    },
    {
      "inputs": [],
      "name": "randomResult",
      "outputs": [
        {
          "internalType": "uint256",
          "name": "",
          "type": "uint256"
        }
      ],
      "stateMutability": "view",
      "type": "function"
    },
    {
      "inputs": [
        {
          "internalType": "bytes32",
          "name": "requestId",
          "type": "bytes32"
        },
        {
          "internalType": "uint256",
          "name": "randomness",
          "type": "uint256"
        }
      ],
      "name": "rawFulfillRandomness",
      "outputs": [],
      "stateMutability": "nonpayable",
      "type": "function"
    },
    {
      "inputs": [
        {
          "internalType": "string",
          "name": "_message",
          "type": "string"
        }
      ],
      "name": "wave",
      "outputs": [],
      "stateMutability": "nonpayable",
      "type": "function"
    }
  ],
  "bytecode": "0x60c060405273b3dccb4cf7a26f6cf6b120cf5a73875b7bbc655b7301be23585060835e02b77ef475b0cc51aa1e07098173ffffffffffffffffffffffffffffffffffffffff1660a08173ffffffffffffffffffffffffffffffffffffffff1660601b815250508073ffffffffffffffffffffffffffffffffffffffff1660808173ffffffffffffffffffffffffffffffffffffffff1660601b8152505050507f2ed0feb3e7fd2022120aa84fab1945545a9f2ffc9076fd6156fa96eaff4c131160001b60028190555067016345785d8a000060038190555060805160601c60a05160601c61146461011060003960008181610372015261074d01526000818161056e015261071101526114646000f3fe608060405234801561001057600080fd5b50600436106100625760003560e01c806342619f6614610067578063449d46c01461008557806394985ddd146100a15780639a2cdc08146100bd578063bd43a908146100db578063dbdff2c1146100f9575b600080fd5b61006f610117565b60405161007c9190610fd3565b60405180910390f35b61009f600480360381019061009a9190610ac8565b61011d565b005b6100bb60048036038101906100b69190610a8c565b610370565b005b6100c561040c565b6040516100d29190610fd3565b60405180910390f35b6100e3610416565b6040516100f09190610e78565b60405180910390f35b610101610567565b60405161010e9190610e9a565b60405180910390f35b60045481565b600180600082825461012f91906110d1565b92505081905550600560405180606001604052803373ffffffffffffffffffffffffffffffffffffffff16815260200183815260200142815250908060018154018082558091505060019003906000526020600020906003020160009091909190915060008201518160000160006101000a81548173ffffffffffffffffffffffffffffffffffffffff021916908373ffffffffffffffffffffffffffffffffffffffff16021790555060208201518160010190805190602001906101f5929190610904565b5060408201518160020155505061020a610567565b50610216600454610669565b60326004541161031d576000655af3107a400090504781111561026e576040517f08c379a000000000000000000000000000000000000000000000000000000000815260040161026590610f53565b60405180910390fd5b60003373ffffffffffffffffffffffffffffffffffffffff168260405161029490610e0a565b60006040518083038185875af1925050503d80600081146102d1576040519150601f19603f3d011682016040523d82523d6000602084013e6102d6565b606091505b505090508061031a576040517f08c379a000000000000000000000000000000000000000000000000000000000815260040161031190610f93565b60405180910390fd5b50505b3373ffffffffffffffffffffffffffffffffffffffff167f6728ef66814a55b797863bf8ffcd954b19cbca4ed4f0e6cf04c980705fd82c368242604051610365929190610f23565b60405180910390a250565b7f000000000000000000000000000000000000000000000000000000000000000073ffffffffffffffffffffffffffffffffffffffff163373ffffffffffffffffffffffffffffffffffffffff16146103fe576040517f08c379a00000000000000000000000000000000000000000000000000000000081526004016103f590610fb3565b60405180910390fd5b6104088282610702565b5050565b6000600154905090565b60606005805480602002602001604051908101604052809291908181526020016000905b8282101561055e57838290600052602060002090600302016040518060600160405290816000820160009054906101000a900473ffffffffffffffffffffffffffffffffffffffff1673ffffffffffffffffffffffffffffffffffffffff1673ffffffffffffffffffffffffffffffffffffffff1681526020016001820180546104c3906111bb565b80601f01602080910402602001604051908101604052809291908181526020018280546104ef906111bb565b801561053c5780601f106105115761010080835404028352916020019161053c565b820191906000526020600020905b81548152906001019060200180831161051f57829003601f168201915b505050505081526020016002820154815250508152602001906001019061043a565b50505050905090565b60006003547f000000000000000000000000000000000000000000000000000000000000000073ffffffffffffffffffffffffffffffffffffffff166370a08231306040518263ffffffff1660e01b81526004016105c59190610e1f565b60206040518083038186803b1580156105dd57600080fd5b505afa1580156105f1573d6000803e3d6000fd5b505050506040513d601f19601f820116820180604052508101906106159190610b09565b1015610656576040517f08c379a000000000000000000000000000000000000000000000000000000000815260040161064d90610f73565b60405180910390fd5b61066460025460035461070d565b905090565b6106ff8160405160240161067d9190610fd3565b6040516020818303038152906040527ff5b1bba9000000000000000000000000000000000000000000000000000000007bffffffffffffffffffffffffffffffffffffffffffffffffffffffff19166020820180517bffffffffffffffffffffffffffffffffffffffffffffffffffffffff838183161783525050505061086c565b50565b806004819055505050565b60007f000000000000000000000000000000000000000000000000000000000000000073ffffffffffffffffffffffffffffffffffffffff16634000aea07f000000000000000000000000000000000000000000000000000000000000000084866000604051602001610781929190610eb5565b6040516020818303038152906040526040518463ffffffff1660e01b81526004016107ae93929190610e3a565b602060405180830381600087803b1580156107c857600080fd5b505af11580156107dc573d6000803e3d6000fd5b505050506040513d601f19601f820116820180604052508101906108009190610a63565b5060006108228460003060008089815260200190815260200160002054610895565b905060016000808681526020019081526020016000205461084391906110d1565b6000808681526020019081526020016000208190555061086384826108d1565b91505092915050565b60008151905060006a636f6e736f6c652e6c6f679050602083016000808483855afa5050505050565b6000848484846040516020016108ae9493929190610ede565b6040516020818303038152906040528051906020012060001c9050949350505050565b600082826040516020016108e6929190610dde565b60405160208183030381529060405280519060200120905092915050565b828054610910906111bb565b90600052602060002090601f0160209004810192826109325760008555610979565b82601f1061094b57805160ff1916838001178555610979565b82800160010185558215610979579182015b8281111561097857825182559160200191906001019061095d565b5b509050610986919061098a565b5090565b5b808211156109a357600081600090555060010161098b565b5090565b60006109ba6109b584611013565b610fee565b9050828152602081018484840111156109d257600080fd5b6109dd848285611179565b509392505050565b6000815190506109f4816113e9565b92915050565b600081359050610a0981611400565b92915050565b600082601f830112610a2057600080fd5b8135610a308482602086016109a7565b91505092915050565b600081359050610a4881611417565b92915050565b600081519050610a5d81611417565b92915050565b600060208284031215610a7557600080fd5b6000610a83848285016109e5565b91505092915050565b60008060408385031215610a9f57600080fd5b6000610aad858286016109fa565b9250506020610abe85828601610a39565b9150509250929050565b600060208284031215610ada57600080fd5b600082013567ffffffffffffffff811115610af457600080fd5b610b0084828501610a0f565b91505092915050565b600060208284031215610b1b57600080fd5b6000610b2984828501610a4e565b91505092915050565b6000610b3e8383610d59565b905092915050565b610b4f81611127565b82525050565b610b5e81611127565b82525050565b6000610b6f82611054565b610b798185611082565b935083602082028501610b8b85611044565b8060005b85811015610bc75784840389528151610ba88582610b32565b9450610bb383611075565b925060208a01995050600181019050610b8f565b50829750879550505050505092915050565b610be281611145565b82525050565b610bf9610bf482611145565b61121e565b82525050565b6000610c0a8261105f565b610c148185611093565b9350610c24818560208601611188565b610c2d816112bf565b840191505092915050565b6000610c438261106a565b610c4d81856110af565b9350610c5d818560208601611188565b610c66816112bf565b840191505092915050565b6000610c7c8261106a565b610c8681856110c0565b9350610c96818560208601611188565b610c9f816112bf565b840191505092915050565b6000610cb76034836110c0565b9150610cc2826112d0565b604082019050919050565b6000610cda602b836110c0565b9150610ce58261131f565b604082019050919050565b6000610cfd6027836110c0565b9150610d088261136e565b604082019050919050565b6000610d20601f836110c0565b9150610d2b826113bd565b602082019050919050565b6000610d436000836110a4565b9150610d4e826113e6565b600082019050919050565b6000606083016000830151610d716000860182610b46565b5060208301518482036020860152610d898282610c38565b9150506040830151610d9e6040860182610da9565b508091505092915050565b610db28161116f565b82525050565b610dc18161116f565b82525050565b610dd8610dd38261116f565b611228565b82525050565b6000610dea8285610be8565b602082019150610dfa8284610dc7565b6020820191508190509392505050565b6000610e1582610d36565b9150819050919050565b6000602082019050610e346000830184610b55565b92915050565b6000606082019050610e4f6000830186610b55565b610e5c6020830185610db8565b8181036040830152610e6e8184610bff565b9050949350505050565b60006020820190508181036000830152610e928184610b64565b905092915050565b6000602082019050610eaf6000830184610bd9565b92915050565b6000604082019050610eca6000830185610bd9565b610ed76020830184610db8565b9392505050565b6000608082019050610ef36000830187610bd9565b610f006020830186610db8565b610f0d6040830185610b55565b610f1a6060830184610db8565b95945050505050565b60006040820190508181036000830152610f3d8185610c71565b9050610f4c6020830184610db8565b9392505050565b60006020820190508181036000830152610f6c81610caa565b9050919050565b60006020820190508181036000830152610f8c81610ccd565b9050919050565b60006020820190508181036000830152610fac81610cf0565b9050919050565b60006020820190508181036000830152610fcc81610d13565b9050919050565b6000602082019050610fe86000830184610db8565b92915050565b6000610ff8611009565b905061100482826111ed565b919050565b6000604051905090565b600067ffffffffffffffff82111561102e5761102d611290565b5b611037826112bf565b9050602081019050919050565b6000819050602082019050919050565b600081519050919050565b600081519050919050565b600081519050919050565b6000602082019050919050565b600082825260208201905092915050565b600082825260208201905092915050565b600081905092915050565b600082825260208201905092915050565b600082825260208201905092915050565b60006110dc8261116f565b91506110e78361116f565b9250827fffffffffffffffffffffffffffffffffffffffffffffffffffffffffffffffff0382111561111c5761111b611232565b5b828201905092915050565b60006111328261114f565b9050919050565b60008115159050919050565b6000819050919050565b600073ffffffffffffffffffffffffffffffffffffffff82169050919050565b6000819050919050565b82818337600083830152505050565b60005b838110156111a657808201518184015260208101905061118b565b838111156111b5576000848401525b50505050565b600060028204905060018216806111d357607f821691505b602082108114156111e7576111e6611261565b5b50919050565b6111f6826112bf565b810181811067ffffffffffffffff8211171561121557611214611290565b5b80604052505050565b6000819050919050565b6000819050919050565b7f4e487b7100000000000000000000000000000000000000000000000000000000600052601160045260246000fd5b7f4e487b7100000000000000000000000000000000000000000000000000000000600052602260045260246000fd5b7f4e487b7100000000000000000000000000000000000000000000000000000000600052604160045260246000fd5b6000601f19601f8301169050919050565b7f547279696e6720746f207769746864726177206d6f7265206d6f6e657920746860008201527f616e2074686520636f6e7472616374206861732e000000000000000000000000602082015250565b7f4e6f7420656e6f756768204c494e4b202d2066696c6c20636f6e74726163742060008201527f7769746820666175636574000000000000000000000000000000000000000000602082015250565b7f4661696c656420746f207769746864726177206d6f6e65792066726f6d20636f60008201527f6e74726163742e00000000000000000000000000000000000000000000000000602082015250565b7f4f6e6c7920565246436f6f7264696e61746f722063616e2066756c66696c6c00600082015250565b50565b6113f281611139565b81146113fd57600080fd5b50565b61140981611145565b811461141457600080fd5b50565b6114208161116f565b811461142b57600080fd5b5056fea264697066735822122098bcd4edd1ef750ee6be6ab1c395b10dfc35a015630524d23a07bdb919bea28164736f6c63430008040033",
  "linkReferences": {},
  "deployedLinkReferences": {}
}